:020000040000FA
:06000000020107022B00C3
:03002B00022F831E
:03003300022F5B3E
:03003B00022FA8E9
:03004300022F0B7E
:03005300022B7607
:03006B00022F332E
:100083000229AFE5C754F84401F5C77901220000FE
:100093000080FB120086B900030200F1E4792178A5
:1000A30008B800028004F709D8FCE479297802B87B
:1000B30000028004F709D8FCE490028178ED790B03
:1000C3008002F0A3D8FCD9FA7A6D7B0D90013778C2
:1000D300E579038015E493A3AD82AE838A828B8393
:1000E300F0A3AA82AB838D828E83D8E9D9E7758288
:1000F3009075837F74001201197582917583007462
:100103000012011975D00075813F751881751902A8
:10011300759F00020096C09FF59FE473D09F22D085
:1001230083D082C09FE493C0E0740193C0E0740263
:1001330093F59F22FF0000B4000028002800283018
:1001430075A000A000A000A00000080008E001F0D6
:10015300001000100010001000100010005000509C
:1001630000500010001000D0070000000000000F36
:100173000001000500307507001000010081FF0039
:10018300000000FFB506D306BB06FF020202080209
:100193005000A0000000E803027B9101000063917E
:1001A300027591010000C40D027191010000B302B8
:1001B300027591010000C50D026F91010000C90293
:1001C300027591010000C60D02A690010000CB024A
:1001D300027591010000C70D028191080000CC0255
:1001E300027591010000C80D028791010000C90D3D
:1001F300FFFF0100FF20027B91010000699102755E
:10020300910100002E0E029B91000000000002737A
:10021300910300005B03630D630D630D630D630DB9
:10022300630D630D630D630D630D630D630D630D4B
:10023300391051103310FFFF0202020202020202C0
:1002430002010D0000001001027B910100006C917E
:10025300027591010000710E02A1910100009F0738
:10026300027591010000720E029F91010000A70721
:10027300027591010000730E029D910100001D9013
:10028300027591010000740E028D910100006B8FC5
:10029300027591010000750E028B91010000478FDA
:1002A300027591010000760E028991010000358FDD
:1002B300027591010000770E02A991010000598F88
:1002C300027591010000780E0285910100000F90E4
:1002D300027591010000790E0283910100007A0EEC
:1002E30001E803053F100AFF000130750302010610
:1002F30000000000000000000000000000000000FB
:10030300000000000000000000000000FFFF0600E6
:10031300800CE8030D09546865726D6F53656E7345
:100323006F720512500040060A000201050302091C
:1003330018546865726D6F2053656E736F72000099
:100343000000000000000F0F0F0F0F0E73010000DD
:100353008B150000C115C7152002102A1E01FF02CC
:100363007B910100006691027591010000910F02DB
:1003730091910000004A0D0273910300004B0D029E
:100383007591010000920F029391010000510D023B
:100393007591010000930F029591000000520D0228
:1003A3007391030000530D027591010000940F0235
:1003B3009791090000950F027391030000590D02F4
:1003C3009991010000960F30313233343536373886
:1003D3003941424344454600286E756C6C20706F6A
:1003E300696E7465722900303132333435363738EB
:1003F30039616263646566003F3F3F000000807FB0
:100403000000803FF9021550B743BA510000204164
:1004130000E7DB2E0000A0401201226BFE03120155
:100423002281FE03120122B0FE03120122E6FE0323
:10043300120122FDFE0312012214FF031201224BBB
:10044300FF031201229EFF03120122B5FF031201D3
:1004530022CCFF03120122318B04120122488B04A8
:10046300120122798B04120122B48B04120122DEC1
:100473008B04120122088C041201221F8C04120126
:1004830022368C041201224D8C04120122768C0434
:10049300120122898C041201229F8C04120122B2C0
:1004A3008C04120122D98C04120122CE9E02120165
:1004B30022D29F02120122FF9F0212012255A002A3
:1004C30012012278A0021201228CA0021201228EB4
:1004D300A002120122B1A002120122B7A10212014D
:1004E30022FBA202120122BFA30212012294A40240
:1004F30012012205A50212012291A50212012294E2
:10050300A5021201221CA60212012257A602120101
:1005130022BEA602120122C1A602120122F8A602DD
:1005230012012221A702120122CCA7021201225694
:10053300A802120122A5A802120122B2A8021201E6
:1005430022B5A80212012215A90212012220A90232
:100553001201229FA902120122A2A902120122B5AD
:10056300A902120122B8A90212012247AA0212010A
:100573002261AA0212012271AA02120122A1AA0275
:10058300120122AEAA02120122B1AA0212012232E0
:10059300AB0212012220AC02120122D2AC021201E0
:1005A3002245D5031201226DD5031201229BD503E7
:1005B300120122D2D50312012230D6031201227B6B
:1005C300D603120122C6D60312012206D703120153
:1005D300224CD7031201227AD70312012237D80300
:1005E30012012241D8031201224ED80312012281A3
:1005F300D8031201224DD90312012259D903120142
:100603002271D9031201227BD903120122E9930437
:10061300120122F793041201220F940412012227DC
:100623009404120122DD8F02120122899002120129
:1006330022049102120122259202120122619202E6
:100643001201220A9302120122F19302120122558E
:100653009502120122AC95021201222D960212017B
:10066300221D97021201226A9702120122F09702B9
:10067300120122229802120122369A0212012278D2
:100683009A02120122969A02120122199B02120166
:1006930022ED9B02120122B59C0212012226BD0308
:1006A300120122F9BD03120122A2BE03120122F597
:1006B300BE03120122A5BF0312012231C00312019E
:1006C300221DC1031201224CC1031201225FC20386
:1006D300120122A7C2031201227CC303120122B812
:1006E300C303120122D4C30312012275970412011A
:1006F3002205EB031201221BEB0312012241EB0340
:100703001201225DEC0312012267EC031201229C09
:10071300ED0312012294EE03120122697A00120101
:1007230022997B00120122CC7B00120122167C004D
:10073300120122DD7D001201229E66001201222297
:1007430067001201223267001201221868001201A9
:1007530022556800120122E1680012012224690077
:100763001201222F6900120122196A001201227C50
:100773006A00120122326B00120122196D0012016C
:1007830022D26E00120122AE6F00120122627000AB
:100793001201229F73001201224D7400120122BC28
:1007A30075001201223C7700120122E37700120147
:1007B300222C7800120122647800120122017900B0
:1007C3001201228C7900120122ECEA011201225655
:1007D300EB01120122B5EC01120122C5EC01120159
:1007E30022F2EC0112012249ED01120122F2ED0184
:1007F300120122F9EE01120122C3EF011201222399
:10080300F10112012266F1011201220BF201120120
:100813002258F2011201227EF2011201228CF4010C
:1008230012012291F40112012296F601120122E330
:10083300F60112012256F70112012289F701120172
:10084300222BF801120122D4F8011201220CF90122
:100853001201220FF90112012257F9011201229705
:10086300F901120122EEF90112012282FB031201A6
:100873002295FB03120122A3FB03120122EBFB03CC
:1008830012012201FC0312012248FC031201225C23
:10089300FD03120122E9FD0312012234FE031201BA
:1008A30022024E001201220E4E00120122494E0076
:1008B3001201228E4E001201224E4F00120122D449
:1008C3004F00120122005000120122395000120180
:1008D300227752001201225B54001201224156007A
:1008E300120122845700120122D25900120122E47C
:1008F3005A001201222F5C001201223F5D001201F7
:10090300225C5D00120122975D00120122B95D0095
:100913001201221C5E00120122DD6200120122720A
:100923006300120122C36300120122EA6300120171
:10093300223C64001201225A6400120122B46400B2
:10094300120122B36500120122376600120122024E
:10095300DA031201220CDA031201224FDA03120125
:10096300226ADA03120122FADA0312012222DB03DA
:100973001201225FDB0312012296DB03120122BF65
:10098300DB0312012234DC0312012249DC031201CE
:10099300225EDC031201228FDC03120122A3DC039B
:1009A300120122C8DC0312012202DD031201222EEE
:1009B300DD03120122B1DD03120122FADD0312016C
:1009C3002224DE031201224FDE03120122189104B6
:1009D30012012215D70212012243D70212012291DA
:1009E300D80212012271D90212012290D9021201F6
:1009F300220DDA0212012250DA02120122A6DB02D0
:100A030012012267DC02120122EEDE021201228FA2
:100A1300DF0212012285E00212012282E1021201A9
:100A230022DCE20212012267E302120122908E0409
:100A3300120122F98E041201224D8F041201227435
:100A43008F04120122A58F0412012277DE03120103
:100A530022E4DE031201222BDF0312012243E0030F
:100A63001201223FE10312012222E203120122A515
:100A73009D03120122E79D03120122B99E03120175
:100A830022929F031201228CA0031201226EA10362
:100A9300120122D7A1031201228DA2031201220106
:100AA300A3031201226DA30312012296A3031201D1
:100AB3002210A403120122A9A4031201220EA503EA
:100AC30012012223A50312012269A5031201228226
:100AD300A503120122E7A503120122EAA5031201CD
:100AE3002289F803120122B1F803120122EFF8035D
:100AF300120122ADF90312012214FA03120122306A
:100B0300FA0312012258FA0312012288FA0312018E
:100B13002297FA0312012214FB031201223AFB0368
:100B23001201220080021201229E8102120122B9C7
:100B33008302120122F5830212012222840212018E
:100B4300220785021201224E85021201229285029A
:100B5300120122A48502120122E48502120122114C
:100B630086021201225C86021201229C8602120175
:100B730022CA86021201221C8702120122AC8702BA
:100B83001201224A8A02120122608C021201229E61
:100B93008C021201222F8E02120122748E02120184
:100BA30022EB8E02120122358F021201222C9403B2
:100BB300120122AB94031201226D9A031201227CCB
:100BC3009B03120122E49C031201227B9D03120169
:100BD30022B09101120122F9910112012226920100
:100BE300120122599201120122669201120122720C
:100BF30092011201228492011201226B93011201CC
:100C030022C99301120122FE93011201224195018F
:100C13001201228E9501120122B295011201221FA7
:100C23009601120122DD960112012296970112010B
:100C330022039801120122B59801120122C59801DD
:100C43001201224C99011201220B9A01120122383E
:100C53009A01120122B19A011201220E9B01120183
:100C630022589B01120122EE9B01120122B99C0121
:100C73001201226E9D01120122E39D011201224401
:100C83009E01120122AE9E01120122E79E01120172
:100C930022899F0112012299A001120122D9A001E8
:100CA300120122F6A00112012215A1011201225CF8
:100CB300A10112012281A101120122AEA10112019F
:100CC3002228A20112012269A2011201228DA3018D
:100CD3001201223DA40112012294A401120122FE59
:100CE300A40112012217A501120122628A03120133
:100CF30022B58A03120122C18A03120122968B03B1
:100D0300120122BD8B03120122F88B03120122640C
:100D13008C03120122A08C03120122D98C0312012D
:100D230022F18C03120122468D031201225F8D03EF
:100D3300120122A88D03120122BB8D03120122D5B9
:100D43008D03120122EB8D031201221E8F03120168
:100D5300226590031201226791031201226192031B
:100D6300120122F1FF01120122DEC9021201220E39
:100D7300CA02120122D6CD021201222DCF02120184
:100D830022F6CF0212012276D10212012247D202A9
:100D930012012284D202120122A7D202120122E5F9
:100DA300D202120122EED20212012238D302120120
:100DB3002242D302120122ECD302120122C5D40231
:100DC30012012219D5021201227BD502120122CE71
:100DD300D502120122FDD5021201223AD6021201D6
:100DE30022A0B80112012207BC011201220DBC018D
:100DF3001201228FC10112012208C601120122DE53
:100E0300C90112012230F203120122A6F2031201D8
:100E130022BCF203120122FDF20312012237F30373
:100E2300120122B0F303120122EBF3031201225E3B
:100E3300F4031201229CF403120122A5F40312010C
:100E430022B1F403120122CDF403120122F8F403B8
:100E53001201220EF50312012252F503120122821E
:100E6300D00312012295D003120122AFD003120145
:100E730022D8D0031201221BD1031201225AD1031B
:100E830012012298D103120122FDD1031201221271
:100E9300D2031201221DD2031201222AD20312010C
:100EA3002241D2031201224FD2031201225AD2034A
:100EB30012012266D20312012279D2031201228483
:100EC300D203120122A7D2031201224ED30312012D
:100ED300225ED30312012278D30312012295D30396
:100EE300120122B1D303120122D6D303120122E14C
:100EF300D303120122F6D3031201220AD4031201EF
:100F0300226BD40312012271D40312012277D4037A
:100F13001201227DD40312012295D403120122C8A7
:100F2300D403120122B4BB0212012238BC02120103
:100F330022E7BC0212012246BE0212012267C0024E
:100F430012012253C10212012288C102120122AAF4
:100F5300C10212012259C20212012251C40212011A
:100F6300227AC4021201220CC5021201223EC502DA
:100F73001201224BC502120122A2C502120122C88C
:100F8300C50212012235C80212012238C902120118
:100F93002290C90212012243AD021201224DAE0278
:100FA30012012234AF021201223EAF02120122606B
:100FB300AF021201226CAF0212012205B10212012B
:100FC3002234B10212012250B202120122A9B2024A
:100FD3001201220FB402120122EEB4021201224ABC
:100FE300B502120122B7B502120122F2B5021201B3
:100FF3002231B602120122EAB80212012204B90216
:1010030012012290B9021201229EB902120122F7A3
:10101300B90212012205BA0212012278BA021201A0
:1010230022DCBA0212012226BB02120122ECEF02D9
:101033001201220EF00212012234F202120122499D
:10104300F50212012261F60212012214F7021201C3
:1010530022F6F702120122EB8C04120122108D04F6
:10106300120122828D04120122ACB503120122B5B2
:10107300B503120122BEB50312012295B603120174
:101083002246B8031201227CB803120122B6B80328
:10109300120122ECB80312012226B9031201225ACB
:1010A300B90312012286B903120122CFB903120137
:1010B3002209BA0312012252BA03120122AABA0365
:1010C300120122DFBA031201223ABB031201227476
:1010D300BB03120122C5BB03120122FBBB03120196
:1010E3002235BC0312012263BC0312012286BC0316
:1010F300120122879504120122B395041201220ED4
:101103009604120122189604120122289604120151
:1011130022E8E302120122FDE30212012259E40252
:10112300120122C4E4021201220CE502120122760A
:10113300E502120122A5E50212012282E90212014F
:101143002290E902120122F2E90212012230EA029C
:101153001201224BEA02120122E6EA021201228B59
:10116300EB021201220EEC0212012247EC021201E1
:1011730022D2EC0212012229ED0212012288ED0291
:101183001201229AED02120122C0ED02120122C9BC
:10119300ED021201221DEF02120122B5EF0212012C
:1011A300229EEE031201227CEF03120122D8EF03E9
:1011B300120122F2EF0312012212F003120122D9CB
:1011C30082041201221E8304120122648304120189
:1011D300222D85041201227C98041201229798047F
:1011E300120122A798041201220EA6031201222E35
:1011F300A603120122A4A703120122F2A7031201DC
:101203002212A8031201227AA803120122FCA803C6
:1012130012012242A903120122CEA90312012217AD
:10122300AE031201223296041201227185041201C7
:1012330022A28504120122CC85041201229786047E
:10124300120122B786041201221587041201227F9C
:101253009904120122ACCA03120122D1CA0312015A
:1012630022D596041201222C3000120122453300AC
:10127300120122F734001201229B35001201223E93
:101283003600120122F53600120122243700120122
:1012930022CE37001201228C3C00120122233D0092
:1012A3001201225F3E00120122C73E001201227B7F
:1012B3003F001201223142001201226B420012014F
:1012C30022D542001201223343001201229143002E
:1012D300120122EE4300120122DD440012012223F7
:1012E30045001201226845001201228B45001201BC
:1012F30022CE4600120122E24600120122EB4700F1
:101303001201222A4800120122564800120122A586
:101313004800120122C648001201220449001201AA
:10132300224B4B001201228C4B001201222A4C004B
:10133300120122954C00120122CE4D00120122E42B
:10134300FF03120122008004120122CB8204120146
:1013530022DF7F0012012231920412012241920402
:1013630012012261920412012201930412012282CA
:10137300F5031201222CF6031201226EF803120167
:1013830022EB8F041201221B900412012288900485
:10139300120122DB9004120122E4E203120122FC77
:1013A300E20312012268E4031201222DE503120174
:1013B3002248E50312012268E503120122B6E50380
:1013C300120122D0E503120122EAE50312012200F1
:1013D300E6031201221FE60312012240E603120173
:1013E300226BE603120122C0E6031201221AFB025A
:1013F3001201223CFB02120122D1FB02120122CF75
:10140300FC0212012290FF0212012249C4031201BD
:101413002246C603120122CCC603120122D3C703FC
:1014230012012297C80312012215C903120122F8DF
:10143300C903120122FBC90312012209CA031201C3
:101443002226CA031201224FCA0312012278CA03B9
:1014530012012286CA031201229ECA03120122C06C
:1014630094041201223995041201225895041201A1
:10147300227795041201227E8704120122E5870454
:10148300120122908804120122068904120122F516
:10149300E60312012228E7031201222EE8031201B8
:1014A3002283E9031201223EEA0312012200800390
:1014B300120122DC80031201222381031201226024
:1014C3008103120122CE8103120122288203120119
:1014D3002298820312012270830312012263840380
:1014E300120122E784031201228A860312012215C4
:1014F3008703120122A587031201223E88031201EA
:1015030022558803120122908903120122E68903DE
:1015130012012249A501120122EDA901120122DEC5
:10152300AC0112012207AD0112012230AD011201FB
:1015330022E2AD01120122C0AF0112012212B10158
:1015430012012259B60112012292B601120122D6CA
:10155300B601120122E2B70112012290DA0112014F
:1015630022C8DC0112012225E0011201225DE00103
:10157300120122E4E0011201224CE1011201229541
:10158300E10112012232E2011201224FE2011201B2
:10159300225CE301120122C1E30112012247E401AB
:1015A300120122C8E401120122DDE5011201222BFE
:1015B300E601120122C1E60112012243E7011201F1
:1015C3002279E701120122A2E7011201224CE8016C
:1015D3001201221CE9011201224CEA011201222804
:1015E300AE031201228EAE03120122A1AE03120139
:1015F30022F1AE0312012243AF03120122C8AF034B
:1016030012012216B00312012284B10312012259DE
:10161300B5031201220F9304120122129304120143
:10162300225E8904120122D88A04120122DBFA0104
:10163300120122FCFA011201224BFB01120122FECC
:1016430098041201222DCA011201223DCF01120179
:1016530022FB9904120122BBFF01120122279A04E3
:101663001201224F9A04120122F997041201222334
:101673009804E066701008A3E066700A08A3E066A9
:10168300700408A3E06622C008C3E096F50808A327
:10169300E096420808A3E096420808A3E0964208B1
:1016A300A2D265D033E5087001D3D00822C3E796F0
:1016B3000809E7960809E7960809E79622C3E09622
:1016C30008A3E09608A3E09608A3E09622C008C307
:1016D300E096F50808A3E096420808A3E0964208BE
:1016E30008A3E09645087001D3D00822080808E64D
:1016F30030E711121FA9121707080808C64480C64D
:1017030018181822181818E9799EC608CAC608CBF3
:10171300C608CCC6C370207996CACBCC7019798E13
:10172300CBCC70137986CC700EF9802ACA33CACB1E
:1017330033CBCC33CC331930E7F2CCCBCA33501490
:101743007004EA30E00DE4CA3ACACB3BCBCC3CCCC4
:10175300500209C3E913C6CC182313C6CB18C6CA53
:1017630018C6F9221217A720F01430E72B74FFFCD8
:10177300FBFA747F8022E4FCFBFA7480801AB48045
:1017830008BC00F2BB00EF800F50EBF9E4C39AFAF8
:10179300E49BFBE49CFCE499C6CC18C6CB18C6CAF0
:1017A30018C6F922E4C9C608CAC608CBC6D3330390
:1017B30008CCC63392F0C3947F402E94184019C9C5
:1017C300B90704CACBCC225025C309CA33CACB33C9
:1017D300CBCC33CC33D9F422F4600DC9CCC313CBB7
:1017E30013CBCA13CAD9F6CC22E4FCFBFA2214FCAD
:1017F300FBFA22E62618461846184622E727194719
:101803001947194722181818E60846087009E626EA
:10181300087005E633F4220822191919E709470964
:101823007009E727097005E733F4220922E6084621
:1018330008C3134608336002E633F422E709470975
:10184300C3134709336002E733F4221218306025CB
:1018530012183F60201217F670030217FF080808DA
:10186300E76670101819E766700A1819E7667004BE
:101873001819E76622F422121830601C12183F6010
:10188300171217F670071217FF7001D322C0D01278
:1018930017FF7006D0D0B322C32233D0D0501430F8
:1018A300E0F6C3E7960809E7960809E7960809E70B
:1018B30096B32220E0D5E6970809E6970809E6974C
:1018C3000809E697B322121830601B12183F6016FE
:1018D3001217F670071217FF600CB322C0D012174D
:1018E300FF7005D0D022C32233D0D0501330E0EBA9
:1018F300C3E7960809E7960809E7960809E79622D9
:1019030020E0E4E6970809E6970809E6970809E660
:10191300972200121830604F12183F6012E754806C
:1019230066F612180870111217FF703B090909F4C3
:10193300F618F618F618F62212181C70151217F678
:1019430008080860EAE6447FF618768018E4F6187B
:10195300F6221217F660161217FF7012E4F608F655
:1019630008F608E65480F609090918181822EAC08F
:10197300E0EBC0E0ECC0E0EDC0E0E687F0A4FBAC38
:10198300F008E687F0A42CFCE435F0FA1809E687A2
:10199300F0A42C4B60027401CA35F0FCE433FB095C
:1019A300E687F0D2F7A42CCB35F0FC1908E687F0D4
:1019B300A42BCC35F0FBE433FD0819E687F0D2E71E
:1019C300A42C4ACB35F0CD3400FC09E687F0D2E7EE
:1019D300A42DCC35F0FDE433FA0918E687F0D2F7ED
:1019E300A42CCD35F0CA3400FC08E687F0D2E7D248
:1019F300F7A42ACC35F07A7E20E70B0ACB33CBCD84
:101A030033CDCC33CC33CB3350147004ED30E00EF4
:101A1300D2F1E4CD3DCDCC3CCC3B5005DA05C2F14F
:101A2300EB547FC63308E63392F0FBE73309E73321
:101A3300C39A502D2B70190C0D4C4D70151806E6DA
:101A430008C333700D20F10AA2F013F6E418800BDB
:101A53004024E4F630F002768018F618F618F68083
:101A630024D33B14501074FFA2F013F6187680E4CD
:101A730018F618F6800FA2F013F618E63303F618DB
:101A8300ECF618EDF6D0E0FDD0E0FCD0E0FBD0E0C2
:101A9300FA2212183F6046121830603DE968700858
:101AA300F618F618F618F622748067F7121AC909A1
:101AB3000909748067F722121830601D12183F70ED
:101AC30005191919801A121808701F12181CC370EF
:101AD30003E667331919194007181818220808086C
:101AE30074FFF618F618F618F62212181C6017126F
:101AF30017FF702192F01217F67019501720F01487
:101B0300080808090909E7F61819E7F61819E7F6A6
:101B13001819E7F6221217F660E6E869701F08083D
:101B2300E62480F608E436F618547FB47F0CE654B6
:101B3300806007F6E418F618F622181822E9C6CCD6
:101B430008C6CD08C6CE08C6CFC0E0E8C0E0EAC0EC
:101B5300E0EBC0E009E9F809E7FA09E7FBE6F91861
:101B6300E6F8C3EC98ED99EE9AEBC2E7F5F0EFC215
:101B7300E795F0500E600CEBCFFBEACEFAE9CDF916
:101B8300E8CCF8EAA2E7D2E7FAEB33FB13F5F0EE81
:101B9300A2E7D2E7FEEF33FFC5F013A2E730E60179
:101BA300B313C5F0C3C0E0C0F07F00C39BFB605E0E
:101BB3009418600F401D14601AD0E023F9D0E0F8A8
:101BC300021C9B8AF0E9486003D2F0E4AFF0FAF913
:101BD300F8803BEB30E40D89F0EA6003D2F0E4AF28
:101BE300F0F9CAF8EB30E30D88F0EF6002D2F0AF02
:101BF300F0E4CAC9F8EB54076014FBC3EA13FAE92B
:101C030013F9E813F8EF135002D2E0FFDBEDD0E055
:101C1300C0E030E739C3E49FFFF5F0EC98FC42F0F5
:101C2300ED99FD42F0EE9AFE42F0D0E0F9D0E0F8F3
:101C3300E5F0607AE923F9EE20E742D8028067C332
:101C4300EF33FFEC33FCED33FDEE33FE80EAEC289B
:101C5300FCED39FDEE3AFED0E023F9D0E0F8400286
:101C6300801BC3EE13FEED13FDEC13FCEF135002C8
:101C7300D2E0FF08B800067F7F74FF802EEF335059
:101C8300178CF020F00260100CBC000C0DBD000896
:101C93000EBE000408E860DFE933E813FFEE231308
:101CA300FE4F4D4C8008E95480FFE4FEFDFCEE330B
:101CB300EF33F47004FCFD7E80D0E0FBD0E0FAD07B
:101CC300E0F8D0E0CFC618CEC618CDC618CCC6F9FA
:101CD3002212183070041818182212183F700D744D
:101CE300FFF61819F61819F61819F622E754806644
:101CF300F61217F6700F1217FF70F014F608F608B5
:101D0300F608F680D11217FF700CF608F6087680F5
:101D130008E6447F80EC12181F700C12180B60BF8A
:101D2300E65480F6E480BB12180B7005191919806C
:101D3300A5E869700C763F18768018F618F6E8F96E
:101D430022E6CDC0E018ECC0E0E633CD33CDD313AB
:101D5300F6E719FCE7191933CC33C3947F400ECD52
:101D63009D502408E65480F6E418F6800FF4043DF1
:101D730014501408E6447FF6187680E418F618F633
:101D8300D0E0FCD0E0FD22CCD313CCFD18E4C6CBCD
:101D9300C0E018E4C6CAC0E00808ED08C633E6137D
:101DA300F618E433C675F003C3CA97CA09CB97CBB9
:101DB300199C40047D08802EBD0003021E7D16B6CB
:101DC300FF050606081618C3CA33CACB33CB33CA7A
:101DD30027CA09CB37CB193CC37D08803E187D0841
:101DE30020E75CC633C6CA33CACB33CB33DDF1D568
:101DF300F0EB30E77BCA97CA09CB974ACB199C40D3
:101E03006F4B7025E620E0218066187D08C3CA97D2
:101E1300CA09CB97CB199CD3C633C6CA33CACB33B3
:101E2300CB3350C9DDE7D5F0E1D3E4C636C608C6E7
:101E330036C608C636C608C636C61818188031C353
:101E4300CA97CA09CB97CB199CB34097C633C6CA66
:101E530033CACB33CB33DD34D5F02EC6A2E0C64034
:101E6300C8CA27CA09CB37194A70BECB3CB480B95C
:101E73000808E63308E633601F181818D0E0FAD0D4
:101E8300E0FBD0E0FCD0E0FD22187D08CA27CA0998
:101E9300CB37CB193CD3808013F618E4B67F11F609
:101EA30018B6FF0EF618C60470D20808768080CAEA
:101EB300F618F618F680C5080808EAC0E0EBC0E09B
:101EC30086F0E7A4FA180986F0E7A42AFA18098627
:101ED300F0E7A42AFA180986F0E7A42AFA1986F08B
:101EE300E7A4FBE5F02AFA190886F0E7A42BFBE543
:101EF300F03AFA190886F0E7A42BFBE5F03AFA1852
:101F0300180986F0E7A4C5F02BFBE43AFA1908E7B1
:101F1300C5F0C6A426F6E5F03BFBE43AFA1886F0D2
:101F2300E7A4F6E5F00826F6E43B08F6E43A08F6FB
:101F3300D0E0FBD0E0FA22E4CFC0E0E4CEC0E0E49E
:101F4300CDC0E0E4CCC0E075F020E626F608E63329
:101F5300F608E633F608E633F6181818EC33FCED0A
:101F630033FDEE33FEEF33FFC3EC9709ED9709EE34
:101F73009709EF97191919400FFFEC97FC09ED9793
:101F8300FD09EE97FE191906D5F0BFECF709EDF739
:101F930009EEF709EFF7191919D0E0FCD0E0FDD0ED
:101FA300E0FED0E0FF22181818E4C396F608E49682
:101FB300F608E496F608E496F6226016080808C6C2
:101FC300C313C618C613C618C613C618C613C6D578
:101FD300E0EA227009080808226016181818C6C318
:101FE30033C608C633C608C633C608C633C6D5E0EB
:101FF300EA22E627F60809E637F60809E637F6087F
:1020030009E637F622E026F608A3E036F608A3E051
:1020130036F608A3E036F622E026F008A3E036F011
:1020230008A3E036F008A3E036F022C3E697F608EB
:1020330009E697F60809E697F60809E697F622C334
:10204300E096F008A3E096F008A3E096F008A3E07A
:1020530096F022E056F608A3E056F608A3E056F6FB
:1020630008A3E056F622E056F008A3E056F008A3D2
:10207300E056F008A3E056F022E046F608A3E04657
:10208300F608A3E046F608A3E046F622E0F608A326
:10209300E0F608A3E0F608A3E0F622E6F008A3E6DC
:1020A300F008A3E6F008A3E6F022E0FAA3E0FBA31E
:1020B300E0FCA3E0FD22EAF0A3EBF0A3ECF0A3ED38
:1020C300F022E0F8A3E0F9A3E0FAA3E0FB22E8F0B2
:1020D300A3E9F0A3EAF0A3EBF022CAC0E0E6F0A381
:1020E30008DAFAD0E0FA22CAC0E0E0A3C582CCC580
:1020F30082C583CDC583F0A3C582CCC582C583CDFC
:10210300C583DAE6D0E0CA22C3E498F8E499F91269
:10211300214C8026C3E49AFAE49BFBE920E7E91209
:10212300214CE498F8E499F922C3E498F8E499F986
:1021330012214CE498F8E499F9C3E49AFAE49BFB7E
:1021430022EB20E7CFE920E7E0B90010BB0008E865
:102153008AF084F8AAF022E4FBC8FA22EB70227B0F
:1021630010C833C8C933C9335007C39AC3DBF280DD
:10217300069A50012ADBEAC833F4C8C933F4C9FA12
:102183002275F008E4C833C8C933C933C99AC99B57
:102193005004C92AC93BD5F0ECFBC833F4C8E4C9E1
:1021A300FA22600D08C6A2E713C618C613C6D5E007
:1021B300F322600C08C6C313C618C613C6D5E0F4D1
:1021C30022700422600D18C6C333C608C633C6D5B1
:1021D300E0F41822251810AF08F518400C151980E3
:1021E30008F51840021519D2AF2200C0D0251810E7
:1021F300AF08F518500C05198008F5185002051999
:10220300D2AFD0D0222518F58210AF08F518400CB4
:1022130015198008F51840021519D2AF85198322C4
:102223002518F582E43519F583222518F8E43519C4
:10223300F9222518FAE43519FB222518FCE435198F
:10224300FD22E4732518C582C0E0E51934FFC58378
:10225300C0E0E518C3958224F810AF08858319857B
:1022630082188008858319858218D2AFCEF0A3E542
:1022730020F0A37808E608F0A3DEFAEFF0A3E581E7
:1022830024FAF8E608F0A3E608F0A3E608F0A308AA
:1022930008E608F0A3E608F0A315811581D0E0FE57
:1022A300D0E0F8158115811581E8C0E0EEC0E02289
:1022B3002518C582C0E0E51934FFC583C0E0E518E1
:1022C300C3958224F910AF08858319858218800885
:1022D300858319858218D2AFCEF0A3E520F0A378C9
:1022E30008E608F0A3DEFAEFF0A3E58124FBF8E6A5
:1022F30008F0A3E608F0A30808E608F0A3E608F050
:10230300A315811581D0E0FED0E0F815811581E891
:10231300C0E0EEC0E022851983851882E0A3FEE0C9
:10232300A3F5207808E0A3F608DFFAE0A3FFE0A313
:10233300C0E0E0A3C0E0E0A3C0E0E0A3C0E0E0A30E
:10234300C0E010AF0885821885831980088582183C
:10235300858319D2AFD083D08202011F851983856B
:102363001882E0A3FEE0A3F5207808E0A3F608DFD7
:10237300FAE0A3FFE0A3C0E0E0A3C0E0E0A3C0E075
:10238300E0A3C0E010AF0885821885831980088513
:102393008218858319D2AFD083D08222C0D025186A
:1023A300C582C0E0E51934FFC583C0E0E518C395D5
:1023B3008224F310AF0885831985821880088583EA
:1023C30019858218D2AFC8F0A3E9F0A3EAF0A3EB12
:1023D300F0A37908E709F0A3D8FAECF0A3EDF0A392
:1023E300EEF0A3EFF0A3D0E0F0A3D0E0F0A3D0E0B1
:1023F300F0A3E520F0A3E5F0F0A322851983851867
:1024030082E0C0E0A3E0F9A3E0FAA3E0FBA378082D
:10241300E0F608A3DFFAE0FCA3E0FDA3E0FEA3E0FF
:10242300FFA3E0C0E0A3E0C0E0A3E0F5D0A3E0F5A4
:1024330020A3E0A3F5F010AF0885831985821880E7
:1024430008858319858218D2AFD082D083D0E0F873
:10245300D0E03274048006740280027401C0E0F498
:1024630004122208D0E01220DD22740480047402D6
:102473008000CCC0E0EDC0E0E518C39CCCAD1950A2
:10248300011D10AF068C188D1980068C188D19D27A
:10249300AF1220EAD0E0FDD0E0FC22D083D082E965
:1024A300C0E0E493A3C386F0C5F095F0F908E49384
:1024B300A386F0C5F095F0700BE493A3C399400590
:1024C300E9048002A3E475F002A42582F582E5F015
:1024D3003583F583D0E0F9E493A3C0E0E493C0E04F
:1024E30022D083D082ECC0E0EDC0E0E493A3FCE40F
:1024F30093A3FDED4C600D122530EC24FFFCED346D
:10250300FFFD80EFE493A3FCE493A3FDED4C600D8A
:1025130012256FEC24FFFCED34FFFD80EFD0E0FDCE
:10252300D0E0FCE493A3C0E0E493C0E022C0E0C3A6
:10253300E49396087401939618400FE49366700829
:1025430008740193661870007019A3A3C3E49396EB
:10255300087401939618A3A3400DD0E0D0E0D0E017
:10256300022520A3A3A3A3A3A3D0E022C0E0C0F02D
:1025730088F0E4936670080874019366187000A8E5
:10258300F0A3A3700BD0F0D0E0D0E0D0E002252080
:07259300A3A3D0F0D0E02269
:10259C0074F51222B3EAFEEBFFEE2434F8EF3400AC
:1025AC00F988088909EE24351226C8F8EE2437126A
:1025BC0026C8F50AEC850AF0A4FCAAF0850AF0ED11
:1025CC00A42AFDE82CF8E43DF97A257B0012214C75
:1025DC00EA850882850983F074075AF87401B800FB
:1025EC00028004C333D8FCFBEA131313541FF8EE18
:1025FC0028F8EF3400F9E8245DF582E91226CB5B6C
:10260C006003EA801CEE24361226C8F5F0EA84A892
:10261C00F0EE28F8EF3400F9E82438F582E91226B8
:10262C00CBF97F0402235F74F51222B3EAFEEBFFB1
:10263C00EE24341226C8C0E0EE2435F582EF3400C7
:10264C00F583D0E0F08E828F83A3A3A3A3A3E0FA3B
:10265C00A3E0FB8E828F83A3A3A3A3A3A3A3E0FC7D
:10266C00A3E0FDECC39AF50AED9BF50BEE247FF588
:10267C0008EF3400F509850882F583E06401702BBE
:10268C00EE2480F582EF3400F5831224711226D1EA
:10269C0074021221EDE960137C1E7D05EEFAEFFB4E
:1026AC00120C8B850882850983E4F0AC0AAD0BEE25
:1026BC00FAEFFB12259C122EF702262EF582EF3430
:1026CC0000F583E022C082C083851882851983E0DF
:1026DC00F8A3E0F9C3EA9CEB9D5010C3EC98ED997C
:1026EC00401BC3EA98EB995014800EC3EA98EB99FF
:1026FC004007C3EC98ED994004790180027900D031
:10270C0083D08222EAC39CFAEB9DFB2274ED122249
:10271C00B39003E4E064086005E06407702C9061FA
:10272C00C8E06026900412E0F874FF68601CE8753D
:10273C00F003A4C8AAF02AF9741428FE740439FF13
:10274C008E828F83A3A3A3E0700579000228B8EED4
:10275C002468F510EF3400F511906060E08510826C
:10276C00851183F0750A87750B05750800750900CE
:10277C00E5D914F50EE5D95403F50F601CEE24824F
:10278C00F50CEF3400F50D7403650F6058E50E6021
:10279C0013EE24671226C8700B793DEEFAEFFB128C
:1027AC000CAF80A6900582E064016026850C8285C2
:1027BC000D83E06004780480027800850E08E5083B
:1027CC00C398FA95E0FB120B358A088B09EA450988
:1027DC007006120F07022756850C82850D83E07058
:1027EC00048A0A8B0B78008016E5D9C0E08812E5C4
:1027FC000A2512F582E50B3400F583D0E0F008E8E9
:10280C00C3950E40E4850C82850D83E0602874FC32
:10281C00250EF50E780A12245AAC0EA90FEEFAEF1B
:10282C00FB120D5D74021221EDE9700AAA08AB09C6
:10283C0012147D0227A57403650F6058850E0C7564
:10284C000D00780C12245AAC0AAD0BAA08AB091275
:10285C000D2174021221ED851082851183E0F8742C
:10286C0080687005750C7F8002880CE50CF50A7881
:10287C000A12245EE50FF50A780A12245EA90EAC42
:10288C0008AD09900412E0FA7B001209CD74021213
:10289C0021ED80139003E4E06408600BAC0AAD0BEF
:1028AC00EEFAEFFB120DF3120F1379017F0C0223DA
:1028BC005F74F31222B374FC1221D7EAFEEBFF898A
:1028CC0008A2AFE433F509C2AFEE2463F50AEF3486
:1028DC0000F50B8010AA0AAB0B120CD912147D90C8
:1028EC000525E004F0850A82850B83E0F8A3E0F966
:1028FC00E849602FE82402FAE93400FBEA2402F5E7
:10290C000CEB3400F50D780C12245A8A828B83E080
:10291C00FCA3E0F9EEFAEFFB120CCD74021221EDE0
:10292C00E960B2900525E06057900526E0F8900527
:10293C0025E0C398500C740265087044900527E09C
:10294C00603E8E828F83A3A3A3A3E0851882851992
:10295C008312299C7402122223E812299C900524CC
:10296C00E028F07402122223AC82AD838518828594
:10297C001983AA82AB8379011209D9900525E4F059
:10298C00E509A2E092AF74041221ED7F0602235FE9
:10299C00F0A3E4F0900525E0F8220000852187855E
:1029AC0022C622C0E074EF12239FA2AFE433FEC212
:1029BC00AF759B00906182E0A2E05012E591A2E01D
:1029CC00500C7591FE740165217003122718E0A25A
:1029DC00E55051E591A2E5504B7591DF9003E4E091
:1029EC0064076005E0640870237401652170357913
:1029FC0001900412E0FA75F003A4CAA8F028FB7445
:102A0C00142AFA74043BFB1228BD8018E0640D7084
:102A1C0013900406E004F064287002E4F07A00E0FD
:102A2C00F9120F19906182E0A2E64003022AD6E562
:102A3C0091A2E64003022AD67591BF9003E4E064AC
:102A4C00057008120E35120E418003120E3B7521D3
:102A5C0000120EA7E99003E5F07900120E9B120B01
:102A6C00F57A017B009003E3E0F912117190780381
:102A7C00E064427055900586E014F0704DC2AF12C0
:102A8C002A8E00782AD0E0F618D0E0F6E59F54079D
:102A9C0070057509FF800375097FC4C0E07829E6CD
:102AAC00F50808E65509F509740B78081221B5D01C
:102ABC00E02508F8906270E0A2E740F8E8C3339094
:102ACC006272F0906270E0D2E0F0906181E0A2E37B
:102ADC005009E5E9A2E3500375E9F7A3E0A2E7503A
:102AEC0009E591A2E7500375917FEEA2E092AF7FCA
:102AFC00040223FEC0E0C0D0C082C083906183E09A
:102B0C00A2E05009E5BFA2E0500375BFFEE0A2E1D0
:102B1C005009E5BFA2E1500375BFFDE0A2E25009E8
:102B2C00E5BFA2E2500375BFFBE0A2E35009E5BF8D
:102B3C00A2E3500375BFF7E0A2E45009E5BFA2E49D
:102B4C00500375BFEFE0A2E55009E5BFA2E55003C5
:102B5C0075BFDFE0A2E65009E5BFA2E6500375BFE2
:102B6C00BFD083D082D0D0D0E032C0E074F2122338
:102B7C009FE5A7A2E4500FE5A1A2E4500953A7EFEB
:102B8C0075A1EF122BCAE5A7A2E5500CE5A1A2E5B1
:102B9C00500653A7DF75A1DFE5A7A2E15009E5A117
:102BAC00A2E1500375A1FDE5A7A2E2500CE5A1A29C
:102BBC00E2500653A7FB75A1FB7F010223FE74F8BC
:102BCC001222B37521019003E4E0640670077A00C9
:102BDC007B00120E1DA2AFE433FED2AF9003EAE0ED
:102BEC00640170187A207B009003E3E0F912120D57
:102BFC007A207B009003E3E0F9121177906182E078
:102C0C00D2E6F0900583E0602185C6228016900301
:102C1C00E9E064017008E5C654F84405F5C653BEF6
:102C2C00FC1229A87401652160E4EEA2E092AF7F4A
:102C3C000102235F8E238F248582288583278518A4
:102C4C0082851983E0CEA3E0CF852882852783EB8C
:102C5C00C9EAC8EDCBECCA75F010C3E833C8E93348
:102C6C00C9EA33CAEB33CBC3EA9EF526EB9FF525B5
:102C7C00B35004AB25AA26EC33CCED33CDD5F0DA2A
:102C8C00AE23AF242274F11222B38A088B098C0A6A
:102C9C008D0B9090FB7808122056740F122223781B
:102CAC000C12208F9090FB780C1220567808790C1F
:102CBC001216B090913750107808790C12202E789B
:102CCC00081216D04014800E780C790812202E7839
:102CDC000C1216D050047901800279007F0802236F
:102CEC005F74ED1222B38A088B098C0A8D0B9090BD
:102CFC00FB78081220567413122223780C12208FA2
:102D0C009090FB780C122056780C79081216B04073
:102D1C00117808790C12202EAA08AB09AC0AAD0B5D
:102D2C008022751000751100751200751301781052
:102D3C00790C12202E78107908121FF5AA10AB11FD
:102D4C00AC12AD137F0C02235F9090FB780812201D
:102D5C008F8A828B8378081220697F0402235F7428
:102D6C00F51222B38C828D83780812208F8A828B85
:102D7C00837808122042122DBFC3E098F0A3E0998B
:102D8C00122DB1401E909153780812208F8A828B9D
:102D9C0083780812201B8E828F83E02420F0A3E01E
:102DAC00344EF080A4F08E828F83C3E09420A3E095
:102DBC00944E22EA2404F8EB3400F9E8FEE9FF8C87
:102DCC00828D83A3A3A3A3E0F8A3E0F98E828F8363
:102DDC002274F51222B3E9FE900539E0FAA3E0FB68
:102DEC00EEC333F8E433F974D128F582748F39F5D6
:102DFC0083E02AF508A3E03BF509780812245A90E1
:102E0C00910B1220AD122C4074021221ED8A088B0A
:102E1C00098C0A8D0B74107808121FBDAA08AB0917
:102E2C007F0402235F74F11222B38A0C8B0D8C0E7B
:102E3C008D0F740F122223E0FAA3E0FB74111222FF
:102E4C0023E0F508A3E0F509780812245AEA2401D6
:102E5C00F508EB3400F509E4F50AF50B780C790864
:102E6C00121EBA909127780812208F780C790812CC
:102E7C001EBAAA0CAB0DAC0EAD0F122C4074021284
:102E8C0021ED8B09EA450960047A0180027A00EC95
:102E9C002AFCED3400FD7413122223E0F8A3E0F9B0
:102EAC00E8FEE9FFECF8EDF97A717B0212214C880F
:102EBC00088909E4F50AF50B8E828F8378081220B5
:102ECC009EECF8EDF97A717B0212214C8A088B0981
:102EDC00740578081221C48E828F83A3A3A3A3E563
:102EEC0008F0A3E509F07F0802235FC082C083E9E4
:102EFC00906000F0D083D08222C2AF02000022C0CA
:102F0C00E074F212239FA2AFE433FED2AFC2C0E54D
:102F1C00D1A2E4500653D1EF121459EEF8EEA2E010
:102F2C0092AF7F010223FEC0E074F212239FA2AF86
:102F3C00E433FED2AFE589A2E150031213937589F5
:102F4C0000C2C5EEF8EEA2E092AF7F010223FEC0F4
:102F5C00E074F212239FA2AFE433FED2AFE58BA252
:102F6C00E05003121393758B00C2E8EEF8EEA2E06A
:102F7C0092AF7F010223FEC0E0C0D0E8C0E0E9C000
:102F8C00E0A2AFE433F8D2AFC2C7E8F9E8A2E0920E
:102F9C00AFD0E0F9D0E0F8D0D0D0E032C0E0C0D073
:102FAC00E8C0E0E9C0E0C008C009C082C083A2AF9D
:102FBC00E433F9D2AF900B2CE0F8900B2DE0687055
:102FCC000B539AFB900B2E7401F08031C2E9900BDD
:102FDC002CE0F50874012508900B2CF07509007491
:102FEC00AC2508F582740A3509F583E0F5C1900B20
:102FFC002CE0C394804006900B2C7400F0E9F8E9A7
:10300C00A2E092AFD083D082D009D008D0E0F9D022
:07301C00E0F8D0D0D0E03253
:10302400FFFFFFFFFFFFFFFF74F012224774F81247
:1030340021D78A0E8B0FE9FF8C0C8D0D7E00850E37
:1030440008850F09780812249E0004101133743087
:103054009730B630D930FC301F31503173318A315A
:10306400BA3172329532B832E63211331133E33168
:1030740074016F7019850C82850D83E0C39403502D
:103084000D850C82850D83E0900F19F080027E1867
:1030940002333974026F7015850C82850D83E0F854
:1030A400A3E0F9900F1AE8F0A3E9F080027E180279
:1030B400333974016F7019850C82850D83E0C394D4
:1030C40002500D850C82850D83E0900899F08002F2
:1030D4007E1802333974016F7019850C82850D8353
:1030E400E0C39405500D850C82850D83E090089A09
:1030F400F080027E1802333974016F7019850C82D6
:10310400850D83E0C39402500D850C82850D83E008
:1031140090089BF080027E1802333974106F702778
:10312400750810750900780812245AAC0CAD0D7A94
:103134009C7B0812111774021221ED8A088B0985F1
:10314400088285098380027E1802333974016F7006
:1031540019850C82850D83E0C39402500D850C8281
:10316400850D83E09008ACF080027E180233397438
:10317400016F700D850C82850D83E0900F1DF0802A
:10318400027E1802333974046F702690910B78080C
:1031940012208F850C82850D8378081216C0501179
:1031A400850C82850D831220C59008AE1220D18033
:1031B400027E18023339EF7021120703E9701312EB
:1031C40012E5E9F508795012150DE9F5091212D343
:1031D400800A9009417401F080027E180233397428
:1031E400076F600302326D750806750900780812CE
:1031F400245A850C82850D83A3AC82AD837404129A
:10320400223512111D74021221ED8518828519834D
:10321400EAF0A3EBF07C007D007402122235850CE9
:1032240082850D83E0F9121273E9F50AE50AC39465
:103234000A5032120703E97015A90A1212EBE9F5D4
:1032440008795012150DE9F5091212D3801D850A6B
:103254000875090074422508F58274093509F58357
:103264007401F080067E0280027E180233397401F4
:103274006F7019850C82850D83E0C39402500D850F
:103284000C82850D83E09008ADF080027E18023335
:103294003974016F7019850C82850D83E0C3940A1B
:1032A400500D850C82850D83E0900F1CF080027E0A
:1032B4001802333974016F7025850C82850D83E003
:1032C400C394074019850C82850D83E0C394115083
:1032D4000D850C82850D83E0900F1EF080577E18BB
:1032E400805374016F7022900940E0F508850C82C8
:1032F400850D83E0900940F0E5087039900940E0BD
:10330400640170311212D3802C7E188028C3E50E1C
:103314009427E50F9400501B74026F7016850C827D
:10332400850D83E0FCA3E0FDAA0EAB0F1205A1E915
:10333400FE80027E02EEF974081221ED7F0802235A
:103344001974F012224774D71221D7E9C0E0851806
:1033540082851983D0E0F07401122223EAF0A3EBF2
:10336400F08C0E8D0F9090C3740312223D740612DC
:1033740020EA740312223D7401122223E0FAA3E02E
:10338400FB851882851983E0F9121273E9FEEEC3F6
:10339400940A40030234D2EEF91212B5E9FF900FF9
:1033A40019E064027004740180027400F50878085E
:1033B40012245E743A122223E0FDEFFCEEF9AA0E09
:1033C400AB0F12132774011221ED7C147D007900D8
:1033D400741512223512112F8A088B0985080A8563
:1033E400090B741512223D7A1075F006EEA42424FC
:1033F400F9121507E9703B7C1079FF741512223518
:1034040012119BE9702C7425122223AC82AD837AAD
:103414000475F006EEA42425F9121507E9F50874DD
:103424001512223DEFA2E0E433F9AA0EAB0F120607
:103434002BE9740912223D7A0C74702EF9121507C7
:10344400E9707974091222351212A9750800E50889
:10345400C394045067E508F87900E875F003A4C83C
:10346400AAF075F000A42AFA75F003E9A42AF97405
:1034740009122223E58228F50CE58339F50D850C24
:1034840082850D83E0F8A3E0F9E849602B850C827E
:10349400850D83A3A3E0F50A750B00780A12245A5C
:1034A400850C82850D83E0FCA3E0FDAA0EAB0F1210
:1034B400091F74021221EDE905088092EFA2E15080
:1034C4000D900898E0F9AA0EAB0F120925E974399A
:1034D400122223E06404700F900F19E06402700755
:1034E400AA0EAB0F121321790074291221ED7F0863
:1034F40002231974F2122247890B8A088B09ECFE05
:10350400EDFF750A0AE50B600B14600814604114A2
:10351400605F807CAA08AB091212C7E9F50AE50AC4
:10352400C3940A506BEE4F6067750C06750D0078F6
:103534000C12245AAC08AD09EEFAEFFB1211177401
:10354400021221ED8A0C8B0D850C82850D8380403F
:10355400AA08AB091212C1E9F50AE50AC3940A5094
:103564002FEE4F602BEEFAEFFBA90A1212BBE98093
:103574001FAA08AB091212CDE9F50AE50AC3940A99
:10358400500EEE4F600AEEFAEFFBA90A1212BBE9E5
:10359400A90A7F0602231974F21222478A0C8B0DA2
:1035A400E9FF7E1574FF650C700474FF650D702AC5
:1035B400750800E508C3940A5014EFFC7A027B00F6
:1035C400A908121297E960027E00050880E5EF6001
:1035D400627A0F7B13120B178059AA0CAB0D120AD7
:1035E400F98A088B0985080A85090BE50A450B60E9
:1035F400407C007D00E50A2405FAE4350BFB850ACE
:1036040082850B83A3A3A3A3E0F9121273E9F5083F
:10361400E508C3940A500EEFFC7A027B00A9081255
:103624001297E97E00EF600BAA0AAB0B12130F800E
:10363400027E14EEF97F0602231974F012224774F5
:10364400FE1221D7851882851983EAF0A3EBF08C4A
:103654000A8D0B7412122223E0F50EA3E0F50F7EFF
:1036640015851882851983E064FF7004A3E064FF64
:10367400701D7F00EFC3940A506BAC0EAD0FAA0A05
:10368400AB0BEFF912129DE960027E000F80E58515
:103694001882851983E0FAA3E0FB120AF98A0C8BDD
:1036A4000D850C08850D09E508450960367C007D0B
:1036B40000E5082405FAE43509FB850882850983B9
:1036C400A3A3A3A3E0F9121273E9FFEFC3940A5072
:1036D40014AC0EAD0FAA0AAB0BEFF912129DE97EE2
:1036E4000080027E14EEF974021221ED7F08022399
:1036F4001974F7122247EAFEEBFF9008B2EEF0A32A
:10370400EFF0900898E0FC7D007A267B001205A17A
:10371400E9F508900898E0F91208A17F010223193D
:1037240074F012224774FE1221D7E9C0E07401122A
:103734002223D0E0F0EAFEEBFF7412122223780C6D
:1037440012208F8518828519837400F07401122267
:1037540023E07055850C08850D09850E0A850F0B2D
:1037640090910B780C12208F7808790C121F3A8EE6
:10377400088F09780812245AAA0CAB0DAC0EAD0FB1
:1037840012063D74021221EDE9C0E0851882851904
:1037940083D0E0F0851882851983E0601B7901EEFF
:1037A400FAEFFB120637E9800F7401122223E0F9C5
:1037B400EEFAEFFB120637E9851882851983E0F9E2
:1037C40074021221ED7F0802231974F21222477445
:1037D400EC1221D78A0A8B0B850A82850B83A3A35B
:1037E400E024FA7003023C1224FD7003023A8A14A6
:1037F40070030238BE14601024FD7003023A3214C0
:103804007003023ACD023C80AE0AAF0B9008B2E0DE
:10381400F8A3E0F9E84960669008B2E0F8A3E0F59F
:10382400838882E0F8A3E0F9E8496052EE240CF5BD
:1038340082E43FF583E0F508780812245EEE240B59
:10384400F582E43FF583E0F98E828F83A3A3A3A3DB
:10385400A3A3A3A3A3E0FCA3E0FDEE2403FAE43FA7
:10386400FB9008B2E0F8A3E0F5838882E0F8A3E0D7
:10387400F583888212224574011221ED80398E82EB
:103884008F83A3A3A3A3A3A3A3A3A3122471900828
:10389400AE1220AD12063D74021221EDE9601879D2
:1038A400018E828F83A3A3A3A3A3A3A3A3A3E0FA5C
:1038B400A3E0FB120637E9023C80AE0AAF0B8E820E
:1038C4008F83A3E060030239E08E828F83A3A3A3D6
:1038D400A3A3E0A2E040030239E090094CE0F8A37E
:1038E400E0F9E84960030239E07C0E7D007900AA22
:1038F40018AB1912112F8A088B09AA08AB09EE24F8
:103904000CF582E43FF583E0F8A3E0F9E84960367A
:10391400750806750900780812245AEE240CF582FD
:10392400E43FF583E02410FCA3E03400FD740212AC
:10393400223512111774021221ED8A088B098508A9
:1039440082850983804F8E828F83A3A3A3E0FAA389
:10395400E0FB120AF98A0C8B0D850C08850D09E52C
:10396400084509602D750C06750D00780C12245A53
:10397400E5082405FCE43509FD7402122235121110
:103984001774021221ED8A0C8B0D850C82850D8330
:103994008003023C808E828F83A3A3A3A3A3E0A20F
:1039A400E25004D2F08002C2F0A2F0E433F87900CD
:1039B400740C122223E048F0A3E049F0EEFCEFFD82
:1039C400AA18AB191212AFE970127A027B009008A0
:1039D40098E0F9121171E97900023C829008B2E092
:1039E400F8A3E0F9E84960439008B2E0F8A3E0F5F1
:1039F400838882A3A3E0F8A3E0F9E849602D8E82CE
:103A04008F83A3E0FC79018E828F83A3A3A3E0FAC2
:103A1400A3E0FB9008B2E0F8A3E0F5838882A3A3B7
:103A2400E0F8A3E0F5838882122245023C80AE0AC6
:103A3400AF0B9008B2E0F8A3E0F9E84960459008BC
:103A4400B2E0F8A3E0F5838882A3A3E0F8A3E0F949
:103A5400E849602F850A82850B83A3E0FC79028EF6
:103A6400828F83A3A3A3E0FAA3E0FB9008B2E0F85B
:103A7400A3E0F5838882A3A3E0F8A3E0F58388821A
:103A8400122245023C80850A08850B097C007D00D2
:103A9400E5082404FAE43509FB850882850983A333
:103AA400A3A3E0F9121273E9FEEEC3940A5017E5DA
:103AB40008240AFCE43509FD7A0475F006EEA42412
:103AC40025F9121501E9023C80AE0AAF0B9008AD4E
:103AD400E06018900F1CE0F98E828F83A3A3A3E00B
:103AE400FAA3E0FB120637E9023C80900F19E0705C
:103AF4001579058E828F83A3A3A3E0FAA3E0FB12BA
:103B04000637E9023C808E828F83A3A3A3E0FAA345
:103B1400E0FB120AF98A0C8B0D850C08850D098EC1
:103B2400828F83A3A3A3A3A3A3A3E0A2E05071E580
:103B34000845096068850882850983A3A3A3A3E0D7
:103B4400605E8E828F83A3A3A3A3A3A3A3A3A3E0F6
:103B5400F8A3E0F9E8C4540FF87900E85401F8E94F
:103B64005400F9E8A2E04038740E12223DE508241E
:103B740005FAE43509FB850882850983A3A3A3A379
:103B8400E0F9121273E9701879038E828F83A3A36C
:103B9400A3E0FAA3E0FB120637E9023C80023C8072
:103BA400EE2405FCE43FFD850882850983A3A3A3D5
:103BB400A3E0F98E828F83A3A3A3E0FAA3E0FB1210
:103BC400131B9008B2E0F8A3E0F9E849603E9008BE
:103BD400B2E0F8A3E0F5838882A3A3E0F8A3E0F9B8
:103BE400E84960287C0079008E828F83A3A3A3E038
:103BF400FAA3E0FB9008B2E0F8A3E0F5838882A37F
:103C0400A3E0F8A3E0F5838882122245806E1207B0
:103C140003E97068900941E06401701A1212E5E941
:103C2400FE9009417400F07C0A7D0079007A427BA1
:103C34000912112F803C7E00EEC3940A50348E0882
:103C440075090074422508F58274093509F583E085
:103C54006401701BEEF91212EBE9F88E0875090085
:103C640074422508F58274093509F5837400F00E51
:103C740080C6795012150DE9FE1212D3790174141D
:103C84001221ED7F0602231974F312224774F212F3
:103C940021D78908EAFEEBFF8C09AC18AD197A0E1E
:103CA40075F006E508A42420F9121507E970647C70
:103CB4000679FFAA18AB1912119BE97056740C12FD
:103CC4002223E0F8A3E0F9E8F50CE5096005EE42EB
:103CD4000C8004EEF4520C850C0A750B00740C1263
:103CE4002223E0650A7004A3E0650B6022E50CF86A
:103CF4007900740C122223E8F0A3E9F0AC18AD1992
:103D04007A0E75F006E508A42420F9121501E97964
:103D14000180027900740E1221ED7F0502231974CB
:103D2400F012224774E61221D789098A0E8B0FEC10
:103D3400FEEDFF740C12223D7A0E75F006E509A41F
:103D44002420F9121507E96003023E537C0679FF2B
:103D5400740C12223512119BE96003023E53AC1815
:103D6400AD197A0C74702509F9121507E96003027C
:103D74003E4F750800AA18AB191212A9E50E450F9B
:103D8400702E7C0C7900AA18AB1912119BE9600300
:103D9400023E357C0C7D007900AA18AB1912112F54
:103DA4008A0A8B0B850A82850B83750801023E35CE
:103DB400AC18AD19AA0EAB0F1212A38A0C8B0D8589
:103DC4000C0A850D0BE50A450B7030EE4F601BACF9
:103DD40018AD197A007B001212A38A0C8B0DA80C63
:103DE400A90D880A890BE849700479008063850A63
:103DF40082850B83E50EF0A3E50FF0850A82850B1F
:103E040083A3A3E0F87900EE687002EF696022EE04
:103E1400C0E0850A82850B83A3A3D0E0F0EE4F7047
:103E24000D850A82850B837400F0A37400F0750875
:103E340001E5086016AA18AB191212A9AC18AD193D
:103E44007A0C74702509F9121501E9790180027957
:103E540000741A1221ED7F0802231974F712224705
:103E6400EAFEEBFF7B00EBC39404504EEBF87900C1
:103E7400E875F003A4C8AAF075F000A42AFA75F056
:103E840003E9A42AF9EC28F582ED39F583E06E7094
:103E940003A3E06F7021EBF87900E875F003A4C880
:103EA400AAF075F000A42AFA75F003E9A42AF9EC43
:103EB40028FAED39FB80070B80AC7A007B007F0188
:103EC40002231974F71222477F00EFC394044003BE
:103ED400023F76EFF87900E875F003A4C8ACF075FA
:103EE400F000A42CFC75F003E9A42CF9EA28F5826F
:103EF400EB39F583E0F4FCA3E0F4FDEFF87900E896
:103F040075F003A4C8AEF075F000A42EFE75F0039E
:103F1400E9A42EF9EA28F582EB39F583ECF0A3ED58
:103F2400F0EFF87900E875F003A4C8ACF075F00080
:103F3400A42CFC75F003E9A42CF9EA28F582EB39EA
:103F4400F583A3A3E0F4C0E0EFF87900E875F0038B
:103F5400A4C8ACF075F000A42CFC75F003E9A42C03
:103F6400F9EA28F582EB39F583A3A3D0E0F00F0238
:103F74003ECE7F0102231974F012224774F41221F9
:103F8400D7EAFEEBFF8C088D0990094CE0F8A3E01A
:103F9400F9E849702CEE4F6006E50845097005798B
:103FA40001024227EEFAEFFB1212C7E9900F1FF04D
:103FB400900F1FE0C3940A40081212D9E9900F1F12
:103FC400F0900F1FE0C3940A400302422590094C6D
:103FD400E0F8A3E0F9E8496003024071EEFCEFFD6C
:103FE4007A0E75F006900F1FE0A42420F912150133
:103FF400E9F50B7C0C7D0079FFAA18AB1912112F7F
:104004008A0C8B0D850C0E850D0FAC18AD197A0C2E
:10401400900F1FE02470F9121501E9F50A750C0ED2
:10402400750D00780C12245AEEFCEFFD900F1FE082
:10403400F87900E875F00EA4C8AAF075F000A42A77
:10404400FA75F00EE9A42AF974B428FA740839FB55
:1040540012111774021221ED8A0C8B0DA80CA90DF4
:1040640090094CE508F0A3E509F002422190094CBF
:10407400E0F8A3E0C82406F582C83400F583E0F82C
:10408400A3E0F9E849604390094CE0F8A3E0C824B0
:1040940006F582C83400F583E0FCA3E0FD7A1B75C5
:1040A400F006900F1FE0A42421F9121501E9F890FD
:1040B400094CE0F9A3E0C92406F582C93400F5836C
:1040C4007400F0A37400F002422190094CE0F8A3BC
:1040D400E0C8240AF582C83400F583E0F8A3E0F9C7
:1040E400E849604390094CE0F8A3E0C8240AF5824B
:1040F400C83400F583E0FCA3E0FD7A1B75F006905C
:104104000F1FE0A42422F9121501E9F890094CE0EC
:10411400F9A3E0C9240AF582C93400F5837400F0D8
:10412400A37400F002422190094CE0F8A3E0C824F3
:104134000CF582C83400F583E0F8A3E0F9E849609F
:104144004390094CE0F8A3E0C8240CF582C834007D
:10415400F583E0FCA3E0FD7A1075F006900F1FE0F4
:10416400A42423F9121501E9F890094CE0F9A3E01D
:10417400C9240CF582C93400F5837400F0A37400DB
:10418400F002422190094CE0F8A3E0C82408F5822B
:10419400C83400F583E0F8A3E0F9E849606F9009BA
:1041A4004CE0F8A3E0C82408F582C83400F583E0A5
:1041B400FCA3E0FD7A1075F006900F1FE0A4242400
:1041C400F9121501E9F50A90094CE0F8A3E0C824B6
:1041D40008F582C83400F583E02410FCA3E0340021
:1041E400FD7A0475F006900F1FE0A42425F912153A
:1041F40001E9F890094CE0F9A3E0C92408F582C963
:104204003400F5837400F0A37400F080109009402A
:10421400E0600312132D12131579018006790080D2
:10422400027901740C1221ED7F0802231974F7122C
:10423400224774F21221D7E9FEAC18AD197A0E7533
:10424400F006EEA42420F9121507E9700E740C127E
:104254002223E0F8A3E0F9E8F980027900740E1251
:1042640021ED7F0102231974F412224774F2122102
:10427400D78909EAFEEBFFE509C3940A5004EE4F1F
:10428400700479028041AC18AD197A0E75F006E518
:1042940009A42420F9121507E9F508E50870267524
:1042A4000A06750B00780A12245A740212223DEE93
:1042B400FAEFFB12111774021221ED8A0A8B0B8597
:1042C4000A82850B83A908740E1221ED7F04022350
:1042D4001974F4122247EAFEEBFF750800E508C3DF
:1042E400940A5044750A06750B00780A12245AEE93
:1042F400FCEFFDE508F87900E875F00EA4C8AAF013
:1043040075F000A42AFA75F00EE9A42AF974BA2803
:10431400FA740839FB12112974021221EDE96004C0
:10432400A9088006050880B5790A7F040223197458
:10433400F4122247EAFEEBFF750800E508C3940A6D
:104344005044750A06750B00780A12245AEEFCEFE5
:10435400FDE508F87900E875F00EA4C8AAF075F038
:1043640000A42AFA75F00EE9A42AF974B428FA74A0
:104374000839FB12112974021221EDE96004A9081D
:104384008006050880B5790A7F0402231974F712A0
:10439400224774F01221D7EAFEEBFF750800E50806
:1043A400C3940A5039AC18AD197A1075F006E508B3
:1043B400A42423F9121507E970207C1079FFAA18A8
:1043C400AB1912119BE97012EEFCEFFDAA18AB19A0
:1043D40012060DE97004A9088006050880C0790A50
:1043E40074101221ED7F0102231974F4122247750F
:1043F4000800E508C3940A40030244CCE508F879B0
:1044040000E875F00EA4C8AAF075F000A42AFA75A5
:10441400F00EE9A42AF974B428FC740839FD7A0E64
:1044240075F006E508A42420F9121507E9700302C3
:1044340044C77C067D0079FFE508FA7B00EA75F045
:104444000EA4CAA8F075F000A428F875F00EEBA429
:1044540028FB74B42AFA74083BFB12112F8A0A8BC6
:104464000BAE0AAF0B7C067D0079FFE508FA7B00F2
:10447400EA75F00EA4CAA8F075F000A428F875F047
:104484000EEBA428FB74BA2AFA74083BFB12112F12
:104494008A0A8B0BAC0AAD0BE508F87900E875F0D5
:1044A4000EA4C8AAF075F000A42AFA75F00EE9A4C7
:1044B4002AF974C028F582740839F5837400F0A3CE
:1044C4007400F005080243F6900940E060031213FB
:1044D4002D1213157F0402231974F71222477E004C
:1044E400EEC3940A50327C0679FFEEFA7B00EA753B
:1044F400F00EA4CAA8F075F000A428F875F00EEB2D
:10450400A428FB74B42AFA74083BFB12119BE960DB
:1045140004EEF980050E80C8790A7F01022319741C
:10452400F71222477E007F00EFC3940A502F7C06C7
:1045340079FFEFFA7B00EA75F00EA4CAA8F075F0D3
:1045440000A428F875F00EEBA428FB74B42AFA74BE
:10455400083BFB12119BE970010E0F80CBEEF97F33
:104564000102231974F71222477E007F00EFC394DF
:104574000A500DEE700AEFF91212EBE9FE0F80ED0E
:10458400EEF97F0102231974F012224774C9122133
:10459400D7E9FE900F1FE06E701D7A017B00900832
:1045A40098E0F9121177E97A027B00900898E0F913
:1045B400121177E9121339742912223D7A0E75F01B
:1045C40006EEA42420F9121507E960030246BF7C15
:1045D4000679FF742912223512119BE96003024601
:1045E400BF7C0E7D0079FF742912223512112F85AC
:1045F4001882851983EAF0A3EBF07C1B7D0079FF18
:10460400740E12223512112F8A0A8B0B850A0E851D
:104614000B0F7C0C7D0079FF740212223512112FCE
:104624008A0C8B0D850C0A850D0B742912223D7A98
:104634000E75F006EEA42420F9121501E9F50874AC
:104644000E12223D7A1B75F006EEA42421F91215F0
:1046540001E94208740E12223D7A1B75F006EEA49D
:104664002422F9121501E94208740E12223D7A102F
:1046740075F006EEA42423F9121501E94208740E1C
:1046840012223D7A1075F006EEA42424F9121501C5
:10469400E94208740E12223D7A0475F006EEA42451
:1046A40025F9121501E94208740212223D7A0C74AC
:1046B400702EF9121501E942088003750800A90853
:1046C40074371221ED7F0802231974F7122247E987
:1046D400FEEE900898F01212D37F0102231974F2AF
:1046E400122247890AEAFEEBFFEE5400F8EF5480E9
:1046F400F9E8496035900898E0F91211598A0C8B51
:104704000DA80CA90D88088909E8496012AA08AB0C
:10471400091212FDE96008AA08AB09121147E9EE73
:104724006400FAEF6480FB0247E6EE5402602D7CDD
:10473400007D007A007B001212AFE960187A017BD9
:1047440000900898E0F9121171E9EE6402FAEF643E
:1047540000FB0247E67A027B000247E6EEA2E05045
:104764007D90094CE0F8A3E0F5838882A3A3A3E03D
:10477400FAA3E0FB121333E9605E9008B2E0F8A3F9
:10478400E0F9E84960459008B2E0F8A3E0F58388D1
:1047940082A3A3E0F8A3E0F9E849602F7C00790143
:1047A40090094CE0F8A3E0F5838882A3A3A3E0FA80
:1047B400A3E0FB9008B2E0F8A3E0F5838882A3A30A
:1047C400E0F8A3E0F5838882122245121339EE64DF
:1047D40001FAEF6400FB800A7A017B0080047A000E
:1047E4007B007F0602231974F7122247EAFEEBFFCF
:1047F4007508018E828F83E024506013146019249D
:10480400E1701CEEFAEFFB121291E9F5088010EE4C
:10481400FAEFFB1213038007EEFAEFFB121309A958
:10482400087F0102231974F7122247EAFEEBFF8E78
:10483400828F83A3A3A3A3E0641E701179008E82E8
:104844008F83A3A3E0FAA3E0FB121279E97F0102AC
:10485400231974F61222478A088B09850882850970
:1048640083A3A3A3A3E07034AE08AF098E828F8321
:10487400A3A3A3A3A3A3A31224718E828F83A3A3B0
:10488400A3A3A3E0FCA3E0FD8E828F83A3A3E0FA9D
:10489400A3E0FB12127F74021221EDE97F020223CE
:1048A4001974F7122247EAFEEBFF900898E0F98E9C
:1048B400828F83A3E0FAA3E0FB120925E97F0102BA
:1048C4002319C082C08374FF1221D71212DFE9C3F7
:1048D4009402400B8518828519837402F08009853F
:1048E4001882851983740AF0AC18AD197A01790518
:1048F40012071BE974011221EDD083D08202011F3B
:1049040074F212224774E81221D78A088B09E9FE4F
:104914008C0A8D0B7C187D007900AA18AB19121132
:104924002F8A0C8B0DAC0CAD0D851882851983E58F
:1049340008F0A3E509F090089AE0C0E0740212229E
:1049440023D0E0F090089BE0C0E07403122223D04F
:10495400E0F0900F1EE0C0E07417122223D0E0F0C4
:104964007415122223E054FEF8A3E054FFF9900FCB
:104974001DE0A2E0E433FA7B00E84AF8E94BF9745D
:1049840015122223E8F0A3E9F0900F1DE0A2E150F4
:1049940004D2F08002C2F07415122223E054FDFA0E
:1049A400A3E054FFFBA2F0E433F87900E828F8E927
:1049B40033F9EA48F8EB49F97415122223E8F0A315
:1049C400E9F0900F1DE0A2E35004D2F08002C2F09F
:1049D4007415122223E054F7FAA3E054FFFBA2F06B
:1049E400E433F50C750D007403780C1221C4EA4508
:1049F4000CF8EB450DF97415122223E8F0A3E9F045
:104A0400900F1DE0A2E45004D2F08002C2F07415AD
:104A1400122223E054EFFAA3E054FFFBA2F0E433A4
:104A2400F50C750D007404780C1221C4EA450CF8D9
:104A3400EB450DF97415122223E8F0A3E9F0900F69
:104A44001DE0A2E55004D2F08002C2F074151222D7
:104A540023E054DFFAA3E054FFFBA2F0E433F50CA7
:104A6400750D007405780C1221C4EA450CF8EB4569
:104A74000DF97415122223E8F0A3E9F0900F1DE05C
:104A8400A2E25004D2F08002C2F07415122223E094
:104A940054FBFAA3E054FFFBA2F0E433F50C750DCC
:104AA400007402780C1221C4EA450CF8EB450DF9A8
:104AB4007415122223E8F0A3E9F090089BE0602A21
:104AC400750C10750D00780C12245A7C9C7D0874AA
:104AD40006122223AA82AB8312111774021221ED4B
:104AE4008A0C8B0D850C82850D839008ACE06011D7
:104AF400EE600E7415122223E04402F0A3E0440099
:104B0400F09008ACE06006780179008004780079C0
:104B1400007414122223E048F0900899E0600678AB
:104B24000479008004780079007414122223E04888
:104B3400F0AC0AAD0BAA18AB19120631E9741812BD
:104B440021ED7F0602231974F7122247EAFEEBFFD8
:104B54007508009008ACE06006780179008004785C
:104B6400007900E84208900899E06006780479002A
:104B7400800478007900E84208A908EEFAEFFB12F5
:104B840006EBE97F0102231974F212224774E3123F
:104B940021D78A0C8B0DE9FF8C0A8D09742B122204
:104BA40023E0F50874086509700A75F006EFA4247B
:104BB40022FE800875F006EFA42421FE7C1B7D00F4
:104BC4007900740212223512112F851882851983F7
:104BD400EAF0A3EBF0740212223D7A1BEEF91215EF
:104BE40007E97038741C122223E0C39407402D7423
:104BF4001C122223E0C394115022E508F50B780B14
:104C040012245E740312223DE50AA2E0E433F9AAF9
:104C14000CAB0D12064374011221EDE9741D12212F
:104C2400ED7F0602231974F7122247120997E97ED1
:104C340000EEC3940A50557C0679FFEEFA7B00EA35
:104C440075F00EA4CAA8F075F000A428F875F00E4B
:104C5400EBA428FB74B42AFA74083BFB12119BE9F9
:104C64007027EEF87900E875F00EA4C8AAF075F084
:104C740000A42AFA75F00EE9A42AF974B428FA7487
:104C84000839FB790012099DE90E80A57F010223F2
:104C94001974F612224774FD1221D7EAFEEBFF9035
:104CA400094EE0F8A3E0F9E8497039750850750930
:104CB40009780812245A7508027509007808122424
:104CC4005A750873750991780812245A7CFF7DFF80
:104CD4007A017B001207ED74061221ED90094EEA69
:104CE400F0A3EBF090094EE0F8A3E0F9E849700373
:104CF400024DB2E4F508F509780812245A74041236
:104D0400222D88088909780812245A740412222D45
:104D140088088909780812245A9009501224717954
:104D24000290094EE0FCA3E0FDEEFAEFFB1209133A
:104D340074081221EDE9704A851882851983E0FA16
:104D44007B007401122223E0F87900E4C8F9EA2810
:104D5400F508EB39F509E5084509602678081224B9
:104D64005A90094EE0F8A3E0F5838882A3A3A3A395
:104D7400E0FCA3E0FDEEFAEFFB12127F74021221B5
:104D8400EDE9E4F508F509780812245A900950125F
:104D940024717CFF7DFF90094EE0FAA3E0FB12072B
:104DA400F974041221ED90094EEAF0A3EBF0900996
:104DB4004EE0F8A3E0F9E849700479018002790033
:104DC40074031221ED7F02022319C082C08390096B
:104DD4004CE0F8A3E0F9E849601790094CE0FAA325
:104DE400E0FB121147E9F890094C7400F0A3740039
:104DF400F0900F1F740AF0D083D08202011FC0828A
:104E0400C083E9900E2DF002502C74F7122247E96A
:104E1400900323F07C5B7D037AFF7BFF12092B90C8
:104E2400032474FFF0A3F0A3E4F0A3F079051208BF
:104E3400B9900323E0F91207D57A437B09120AE7F4
:104E44007F0102231974F41222478A088B09EB5458
:104E5400806030900323E0F91211598A0A8B0BAE5B
:104E64000AAF0BEE4F60138E828F83E064B0700341
:104E74001208CBEEFAEFFB121147AA08E509648089
:104E8400FB80047A007B00024FFB74F21222477409
:104E9400FC1221D7EAFEEBFFEE4F603874021222B7
:104EA40023EEF0A3EF125260ECF0A3ED125260AACD
:104EB40082AB831207CFE9F50870737412122223B0
:104EC400125E14E50A450B60658E828F83124F3C97
:104ED400EE4F700575080280557A067B001211CBDF
:104EE4008A0C8B0DA80CA90DE84970057508138070
:104EF4003D88828983E4124F46A3A3EEF0A3EF1208
:104F040062ADE50AF0A3E50BF0900329124FCE90B1
:104F140003296017E0FCA3E08003EAFCEBFD8C822C
:104F24008D83124FCE70F38C828D83125D39A90864
:104F340074041221ED0264AFA3A3A3A3E0FEA3E0D3
:104F4400FF22F0A3F0888289832274F21222478917
:104F54000AE975F017A4FEAFF0900328E4F090037B
:104F640026124FCE600A1211D1900326E4F0A3F06A
:104F7400EEFAEFFB1211CB8A088B09EA4509602F80
:104F8400EEFCEFFD790012112F900326E508F0A343
:104F9400E509F07B008008124FB8E4F0A3F00BEBB6
:104FA400C3950A40F2E50A900328F079008002795B
:104FB400130264AFEB75F017A4F8A9F0900326E090
:104FC40028FAA3E0398A82F58322125ACFEA4B22C7
:104FD40074F41222477900EAA2E0501B7508C975DF
:104FE4000990780812245A7C047D007A2F7B0E12D3
:104FF40008B374021221ED7F04022319C082C08316
:10500400900329125033601C88828983A3A3E06A29
:105014007003A3E06B8882898370E8A3A3A3A3121F
:105024005ACB80047A007B00D083D08202011F1205
:105034006582E8492274EE12224774FC1221D7EAF1
:10504400FEEBFF851882851983E4F0A3F0EE2402B9
:10505400125D1DEE240512524EEE2404F50EEF12DD
:105064005633E024FE603924FC604624FE6052245A
:10507400FE605E24FE700302515324FE700302514D
:10508400CB24FE70030251DA24FE70030251E9249A
:10509400FC70030251F824FE7003025207025244CA
:1050A4009003427417F0A3E412526812045D025292
:1050B40044851882851983AC82AD831208D10252CB
:1050C40014851882851983AC82AD831208D70252E5
:1050D40014850C08850D097402122223AC82AD8359
:1050E400850882850983125ACB1207F38A0C8B0D2B
:1050F400AC0CAD0DEC4D6042E4F50CF50D780C12E2
:10510400245A750C42750D03780C12245A750C43FD
:10511400750D03780C12245A740812222312247178
:105124007916125AC512091374081221EDE9F50C07
:10513400700B125AC1120475800F750C0185088218
:10514400850983125256125D39850C080252177470
:1051540002122223AC82AD83850C82850D83125A00
:10516400CB1207F38A108B11AC10AD11EC4D6043D8
:10517400850C82850D83A3A31224717510427511C9
:1051840003781012245A75104375110378101224F1
:105194005A74081222231224717916125AC512095C
:1051A4001374081221EDE9F509700B125AC11204A7
:1051B4007B800F750901850C82850D83125256126E
:1051C4005D39850908804C851882851983AC82ADC8
:1051D400831208DD803A851882851983AC82AD83F9
:1051E4001208E3802B851882851983AC82AD831263
:1051F40008E9801C851882851983AC82AD83120866
:10520400EF800D851882851983AC82AD831208F571
:10521400E9F508E50860298E828F83A3E0641460B1
:105224001F850E82850F83E090034212526012653F
:105234007E900343125D39E508A3125268120457A5
:10524400EEFAEFFB120877025C25F50CEF3400F55B
:105254000D2212658285188285198322F0851882B1
:1052640085198322F07C427D03850A82850B831293
:105274005ACF2274EE12224774FC1221D78A0A8B69
:105284000B8C0E8D0FEA2405F508EB3400F5097C30
:10529400157D0079007A427B0312112FE508240260
:1052A400F50CE509125251851882851983858210FF
:1052B400858311781012245A850882850983A3A353
:1052C400A3A312577B12245AE5082405F510E50917
:1052D4003400F511781012245A850C82850D83123E
:1052E4005AD51207ED74061221ED8A108B11AE10F7
:1052F400AF11E50A2402F50AE50B125D20EE4F70AA
:105304000302543D80177402122223125ACB88825E
:105314008983EAF0A3EBF0900342E004F0900342A7
:10532400E0C39405400302543DE4F510F5117810F0
:1053340012245A75102B751103781012245A751003
:105344002C751103781012245A7406122223122485
:10535400717910EEFCEFFD125AC51209137408128C
:1053640021EDE9705E850882850983A3A3A3A3A325
:10537400A3A3E0F890032BE068704812577B122433
:105384005A7C2C7D03E5082408FAE5093400FB1255
:10539400112974021221EDE960298E828F83A3A35F
:1053A400A3A3125ACB900342E0F5107402781012B2
:1053B40021C474432510F58274033511F583EAF092
:1053C400A3EBF074021222238582108583117810D6
:1053D40012245A7402122223122471850C82850D20
:1053E400831265931207F974041221ED8A108B114C
:1053F400AE10AF11900342E0F510751100740278FD
:10540400101221C474422510F874033511F98882EE
:105414008983A3124FCE7003025301E82403F8E9F1
:105424003400F9EE4F600302530A8882898374FFC3
:10543400F0A3F0900342E004F0900342E0600A120B
:105444005AC11204697900800B8508828509831288
:105454005D30790A025C2574EA12224774FE122137
:10546400D78C128D13EA2405F50CEB12659D124FAF
:1054740040750800750900EA2402F510EB3400F5C4
:105484001185188285198385820A85830B780A120F
:10549400245A850C82850D83A3A3A3A312563D121F
:1054A400245AE50C2405F50AE50D125D20780A124C
:1054B400245A850C82850D831265911207ED7406BA
:1054C4001221ED8A0A8B0BEA450B70030255EEEAB2
:1054D4002404F50EEB125633124F408A828B83A3B9
:1054E400A3A3E0F9851082851183125ACB1207DB3E
:1054F400E9F50960030255EEE4F514F51578141284
:10550400245A75142B751503781412245A75142C07
:10551400751503781412245A740612222312247166
:105524007913AC0AAD0B851082851183125ACB1204
:10553400091374081221EDE9F50960030255EE9090
:10554400032BE0F8E5087009E02402900343F0809F
:1055540017900343E0FCE82402FAE43400FBEA6C0D
:105564007001EB60030255F2850882AA8212577219
:10557400941412576A5073850E82850F83E0C0E03D
:1055840074442A12562AD0E0F00508850E82850F4D
:1055940083A3E0C0E085080A7444250A12562AD081
:1055A400E0F0050890032B12563D12245A7C2C7D02
:1055B4000385080A7444250AFA74033400FB1211A3
:1055C4001774021221ED90032BE02508F50874FFEF
:1055D4006E700374FF6F6012EE24010EEF3400FF4F
:1055E400E508C394145003025485E5086013125966
:1055F400B6851082851183125ACB12046F7900800C
:1056040014E509700375090A851282851383EEF087
:10561400A3EFF0A90974021221ED7F0E022319856C
:10562400080C7444250CF58274033400F583223489
:1056340000F50F850E82F583221262C02274EE12E9
:10564400224774FE1221D78C0E8D0FEA2405F50C27
:10565400EB125251750B00900342E4F0F50AEA2470
:1056640002F508EB3400F5098049900342E0FA9012
:10567400032BE0F8125772941712576A400D9003E7
:1056840042E0F87416C39890032BF012577B12244F
:105694005A7C2C7D0374432AFA74033400FB1211E0
:1056A4001774021221ED90032BE0F8900342E028D6
:1056B400F0050AE50C2416F582E50D12562EE0F8E5
:1056C400E50AC3984003025753900342E0C394167B
:1056D400507DE50AC333F8E433F9E50C28FEE50D03
:1056E40039FF851882851983AC82AD838E828F83BE
:1056F400125ACB1207F38A108B11AC10AD11EC4D7A
:105704007005750B018043E4F510F511781012242F
:105714005A75102B751103781012245A75102C75B4
:105724001103781012245A74061222231224717958
:1057340016850882850983125ACB1209137408123C
:1057440021EDE9F50B700302566E125D2C80107C7E
:10575400427D03850882850983125ACB120481A9EC
:105764000B7402025C27E99400C365D03322EA2853
:10577400F8E43400F9E822E0F510751100781022FD
:1057840074EA12224774FC1221D78A0C8B0D8C12F6
:105794008D13EA2405F50AEB125D207508007509DE
:1057A40000E50A2402F510E50B3400F51174021229
:1057B400222385820E85830F780E12245A850A824D
:1057C400850B83A3A3A3A312626C12245AE50A24B3
:1057D40005F50EE50B3400F50F780E12245A8510EA
:1057E40082851183125D26125AC51207ED740612C2
:1057F40021ED8A0E8B0FAE0EAF0FE50C2402F50ED1
:10580400E50D3400F50F80408882898374FFF0052C
:105814000812562374FFF0050890032BE0F50C756D
:105824000D00780C12245A7C2C7D0385080C7444DA
:10583400250CFA74033400FB12111774021221EDC3
:1058440090032BE02508F508EE4F60718E828F835C
:10585400A3A3A3E0F9850E82850F83125ACB120706
:10586400DBE9F509EE240412524EE97044E4F51420
:10587400F515781412245A75142B7515037814121F
:10588400245A75142C751503781412245A740812AA
:1058940022231224717911EEFCEFFD850E82850F0F
:1058A40083125ACB12091374081221EDE9F5096029
:1058B40027850C82850D831259AC125D39E5087079
:1058C400030259921259B6850E82850F83125ACB60
:1058D40012048779000259A7850882AA82EA9003F4
:1058E4002B7009E02404900343F08022E0F8900335
:1058F40043E0F514E82404FCE43400FDEC65147082
:1059040001ED70C0125772941212576A50B6850C8A
:1059140082850D83E0C0E074442A12562AD0E0F058
:105924000508850C82850D83A3E0C0E0125623D0C0
:10593400E01259C885820C85830D780C12245A74A0
:105944000412222312247185108285118312659317
:105954001207F974041221ED8A0C8B0DAE0CAF0DF5
:1059640085080C7444250CF874033400F9EE4F7068
:105974000302580C851882851983E0888289831272
:1059840059C8A3E0C0E0125623D0E002581AE50932
:10599400700375090A850A82850B831259AC125D5E
:1059A40039A909740402561B126582851282851373
:1059B4008322900343E0F5F0E50884900342F07CF1
:1059C400427D0322F005088518828519832274EC30
:1059D40012224774FE1221D78A088B098C0E8D0F70
:1059E400EA2405FEEB3400FF851882851983AC8216
:1059F400AD838E828F83125ACB1207F38A0A8B0BE4
:105A0400EE241812524EEA450B7003025A9C125CA3
:105A14000E5032851882851983125ACB1209078ACF
:105A2400108B11EA4511606B7912AC0AAD0B850835
:105A340082850983125ACB851082851183122245EF
:105A4400E9F50A7058E4F50AF50B780A12245A8E1F
:105A5400828F83A3A3E0F50A780A12245AEE240362
:105A6400125D1D780A12245A8E828F83125AD5121F
:105A7400091974061221EDE9F50A7021850C828555
:105A84000D83E0701F850882850983125ACB1204A6
:105A94008D8011750A0E8009750A018004E50A607B
:105AA40003125D2C850C82850D83E06004790080EF
:105AB40002A90A74021221ED7F0C0223197C427D93
:105AC40003850A82850B83125ACF22E0FAA3E0FBF6
:105AD40022E0FCA3E0FD850882850983125ACF22C7
:105AE40074EE12224774FE1221D78A088B098C0C9B
:105AF4008D0DEA2405FEEB3400FF750E0085188237
:105B0400851983AC82AD838E828F83125ACB1207A0
:105B1400F38A0A8B0BEA450B7003025BFA125C0EE4
:105B24005035851882851983125ACB1209078A0EBB
